{
  "fileName": "Counter.sol",
  "contractName": "Counter",
  "source": "pragma solidity ^0.5.0;\n\n// import \"@openzeppelin/contracts-ethereum-package/contracts/GSN/GSNRecipient.sol\";\nimport \"@openzeppelin/upgrades/contracts/Initializable.sol\";\n\n// contract Counter is Initializable, GSNRecipient {\ncontract Counter is Initializable {\n  //it keeps a count to demonstrate stage changes\n  uint private count;\n  address private _owner;\n\n  function initialize(uint num) public initializer {\n    // GSNRecipient.initialize();\n    // _owner = _msgSender();\n    _owner = msg.sender;\n    count = num;\n  }\n\n  // accept all requests\n  // function acceptRelayedCall(\n  //   address,\n  //   address,\n  //   bytes calldata,\n  //   uint256,\n  //   uint256,\n  //   uint256,\n  //   uint256,\n  //   bytes calldata,\n  //   uint256\n  //   ) external view returns (uint256, bytes memory) {\n  //   return _approveRelayedCall();\n  // }\n\n  function owner() public view returns (address) {\n    return _owner;\n  }\n\n  // getter\n  function getCounter() public view returns (uint) {\n    return count;\n  }\n\n  //and it can add to a count\n  function increaseCounter(uint256 amount) public {\n    count = count + amount;\n  }\n\n  //We'll upgrade the contract with this function after deploying it\n  //Function to decrease the counter\n  function decreaseCounter(uint256 amount) public returns (bool) {\n    require(count > amount, \"Cannot be lower than 0\");\n    count = count - amount;\n    return true;\n  }\n\n  // function setRelayHubAddress() public {\n  //   if(getHubAddr() == address(0)) {\n  //     _upgradeRelayHub(0xD216153c06E857cD7f72665E0aF1d7D82172F494);\n  //   }\n  // }\n\n  // function getRecipientBalance() public view returns (uint) {\n  //   return IRelayHub(getHubAddr()).balanceOf(address(this));\n  // }\n\n}\n",
  "sourcePath": "contracts/Counter.sol",
  "abi": [
    {
      "constant": true,
      "inputs": [],
      "name": "getCounter",
      "outputs": [
        {
          "name": "",
          "type": "uint256"
        }
      ],
      "payable": false,
      "stateMutability": "view",
      "type": "function"
    },
    {
      "constant": true,
      "inputs": [],
      "name": "owner",
      "outputs": [
        {
          "name": "",
          "type": "address"
        }
      ],
      "payable": false,
      "stateMutability": "view",
      "type": "function"
    },
    {
      "constant": false,
      "inputs": [
        {
          "name": "amount",
          "type": "uint256"
        }
      ],
      "name": "increaseCounter",
      "outputs": [],
      "payable": false,
      "stateMutability": "nonpayable",
      "type": "function"
    },
    {
      "constant": false,
      "inputs": [
        {
          "name": "amount",
          "type": "uint256"
        }
      ],
      "name": "decreaseCounter",
      "outputs": [
        {
          "name": "",
          "type": "bool"
        }
      ],
      "payable": false,
      "stateMutability": "nonpayable",
      "type": "function"
    },
    {
      "constant": false,
      "inputs": [
        {
          "name": "num",
          "type": "uint256"
        }
      ],
      "name": "initialize",
      "outputs": [],
      "payable": false,
      "stateMutability": "nonpayable",
      "type": "function"
    }
  ],
  "bytecode": "0x60806040523480156100115760006000fd5b50610017565b61043f806100266000396000f3fe60806040523480156100115760006000fd5b506004361061005c5760003560e01c80638ada066e146100625780638da5cb5b146100805780639e80c074146100ca578063b24f03af146100f9578063fe4b84df146101405761005c565b60006000fd5b61006a61016f565b6040518082815260200191505060405180910390f35b610088610181565b604051808273ffffffffffffffffffffffffffffffffffffffff1673ffffffffffffffffffffffffffffffffffffffff16815260200191505060405180910390f35b6100f7600480360360208110156100e15760006000fd5b81019080803590602001909291905050506101b0565b005b610126600480360360208110156101105760006000fd5b81019080803590602001909291905050506101c7565b604051808215151515815260200191505060405180910390f35b61016d600480360360208110156101575760006000fd5b8101908080359060200190929190505050610269565b005b6000603360005054905061017e565b90565b6000603460009054906101000a900473ffffffffffffffffffffffffffffffffffffffff1690506101ad565b90565b806033600050540160336000508190909055505b50565b600081603360005054111515610248576040517f08c379a00000000000000000000000000000000000000000000000000000000081526004018080602001828103825260168152602001807f43616e6e6f74206265206c6f776572207468616e20300000000000000000000081526020015060200191505060405180910390fd5b8160336000505403603360005081909090555060019050610264565b919050565b600060019054906101000a900460ff168061028e575061028d6103c463ffffffff16565b5b806102a65750600060009054906101000a900460ff16155b15156102fd576040517f08c379a000000000000000000000000000000000000000000000000000000000815260040180806020018281038252602e8152602001806103dd602e913960400191505060405180910390fd5b6000600060019054906101000a900460ff16159050801561034f576001600060016101000a81548160ff0219169083151502179055506001600060006101000a81548160ff0219169083151502179055505b33603460006101000a81548173ffffffffffffffffffffffffffffffffffffffff021916908373ffffffffffffffffffffffffffffffffffffffff1602179055508160336000508190909055505b80156103bf576000600060016101000a81548160ff0219169083151502179055505b505b50565b60006000303b9050600081149150506103d956505b9056fe436f6e747261637420696e7374616e63652068617320616c7265616479206265656e20696e697469616c697a6564a265627a7a72305820fb2d575eebdc9a0a84d753629ec20a1f1be61ed7a41d6f041d5b616c6e1a05b864736f6c634300050a0032",
  "compiler": {
    "name": "solc",
    "version": "0.5.10+commit.5a6ea5b1.Emscripten.clang",
    "optimizer": {},
    "evmVersion": "constantinople"
  }
}